:03000000020D4AA4
:0C0D4A00787FE4F6D8FD75812D020D9134
:100CAE0020204449474954414C20434C4F434B204C
:100CBE00002020205749544820414C41524D2020BD
:100CCE00200054494D4520203A2000416C61726D40
:100CDE00203A202020202020202020002020004408
:100CEE0041544520203A20002020202053455420F6
:100CFE0054494D45202020200048483A004D4D3A99
:100D0E000053533A00202020205345542044415490
:100D1E0045202020200044443A0059593A00202012
:100D2E00205345542020414C41524D202020004854
:0C0D3E004F55523A20004D494E3A20001B
:10104A000C083132333435363738392A3023011512
:04105A0064011464B5
:100FBA007F3812106E7F0E12106E7F0112106E7F34
:0E0FCA000612106E7F0C12106E7F8002106EE9
:0E106E008F90C2A7C2A6D2A512105FC2A52203
:0F101400E52624D075F00AA4F526120C028F27CA
:0E1023008F90D2A7C2A6D2A512105FC2A5223E
:060F8F007BFF7A0C79EAF9
:100F95008B2B8A2C892DAB2BAA2CA92D120F6060C7
:100FA50013052DE52D7002052C14F9120F60FF12A3
:050FB500102380E22280
:0E105F00E4FFFE0FBF00010EBE13F8BF89F5BF
:01106D002260
:09107C00D2A0D2A1C2A0C2A1229F
:100FD8008F20E4FFA20792A0D2A1C2A1E52025E0BC
:0D0FE800F5200FBF08EE20A0FDD2A1C2A190
:010FF50022D9
:100F2A00A2A09200E4FFE52025E0F520A2A092000D
:100F3A00D2A1C2A10FBF08EEE520B40D0ED2A0D2F5
:100F4A00A1C2A1C2A0121085AF2022C2A0D2A1C202
:050F5A00A1D2A0AF20B0
:010F5F00226F
:09108500C2A0D2A1D2A0C2A12296
:10103100AE05AD0712107C7FD0120FD8AF05120F8D
:09104100D8AF06120FD802108589
:020FF600AE0744
:100FF80012107C7FD0120FD8AF06120FD812107CB7
:0B1008007FD1120FD8120F2A121085A2
:0110130022BA
:0A0BF800E52624D075F00AA4F526C6
:100C0200C283C282C281C280D286D285D28430841B
:100C1200063085032086F73084063085032086520D
:100C2200C280D283D282D28130840630850320866C
:100C320004E4FF803DC281D283D282D28030840616
:100C42003085032086047F018028C282D283D2812C
:100C5200D2803084063085032086047F028013C24E
:100C620083D280D282D2813084063085032086A747
:100C72007F0320840A308507308604E4FE80182032
:100C8200850A3084073086047E01800B2086083076
:100C920085053084027E023084FD3085FA3086F785
:0B0CA200EF75F003A424082EF8E6FF15
:010CAD002224
:1009EB00C2A3120FBA7F8012106E7BFF7A0C79AE06
:1009FB00120F957FC012106E7BFF7A0C79BF120F0E
:100A0B0095E4F516F517AE16AF17E4FCFD7B607A8F
:100A1B00EAF9F8C3120F79400A0517E51770E705D5
:100A2B001680E37F0112106ED2A37F8012106E7BB3
:100A3B00FF7A0C79D0120F95E4FF12108E8F217F65
:100A4B000112108E8F227F0212108E8F237F0412C1
:100A5B00108E8F247F0512108E8F257F0612108E1D
:100A6B00AB07E5156523704EE51465227048C2A3EC
:100A7B00F516F5170517E51770020516B441F5E5E0
:100A8B0016B41FF0D2A3E4F516F5170517E517708A
:100A9B00020516B4D1F5E516B407F0C2A3E4F516BA
:100AAB00F5170517E51770020516B441F5E516B4F1
:100ABB001FF0D2A38002D2A3E515B4640EE514B4E3
:100ACB006409AD25AF24120DD6804F7FC012106E76
:100ADB007BFF7A0C79D9120F957FC812106EE51532
:100AEB00C4540F2430FF121023E515540F2430FF8C
:100AFB001210237F201210237F3A1210237F201213
:100B0B001023E514C4540F2430FF121023E51454A2
:100B1B000F2430FF121023120F8F20B20312080084
:100B2B0020B303120B3DAB21AD22AF23120E3802C3
:020B3B000A3579
:04108E00120FF62225
:100E38008F268D278B287F8812106EE526C4540FC5
:100E48002430FF121023E526540F2430FF121023FC
:100E58007F3A121023E527C4540F2430FF121023C1
:100E6800E527540F2430FF1210237F3A121023E590
:100E780028C4540F2430FF121023E528540F2430BF
:040E8800FF02102332
:100DD6008F268D278B287FC012106E7BFF7A0C79A9
:100DE600ED120F957FC812106EE526C4540F2430FD
:100DF600FF121023E526540F2430FF1210237F2FF5
:100E0600121023E527C4540F2430FF121023E527C0
:100E1600540F2430FF1210237F2F121023E528C40D
:100E2600540F2430FF121023E528540F2430FF02FC
:020E3600102387
:060E8C00AC07AF03AB054B
:100E9200EC75F00A84C454F0FEEC75F00A84E5F0B7
:100EA2004EFCEB75F00A84C454F0FEEB75F00A8434
:100EB200E5F04EFBEF75F00A84C454F0FEEF75F0D6
:100EC2000A84E5F04EFDE4FF121031AD037F0112FA
:090ED2001031AD047F0202103161
:060EDB00AC07AF03AB05FC
:100EE100EC75F00A84C454F0FEEC75F00A84E5F068
:100EF1004EFCEB75F00A84C454F0FEEB75F00A84E5
:100F0100E5F04EFBEF75F00A84C454F0FEEF75F086
:100F11000A84E5F04EFD7F06121031AD037F051204
:090F21001031AD047F040210310F
:100800007F0112106E7F8012106E7BFF7A0C79F6DA
:1008100080337FC012106E7BFF7A0D7907120F951F
:10082000120C028F2612102312101474D02527F5F3
:10083000272526F528D3941740107FC312106E7B0E
:10084000FF7A0C79EA120F9580C87F20121023E4FA
:10085000F516F5170517E51770020516B431F5E51D
:1008600016B475F07FC612106E7BFF7A0D790B12ED
:100870000F95120C028F2612102312101474D0251B
:1008800027F5272526F52AD3943B400A7FC9121065
:100890006E120F8F80CEE4F516F5170517E5177069
:1008A000020516B431F5E516B475F07FCB12106E63
:1008B0007BFF7A0D790F120F95120C028F26121002
:1008C0002312101474D02527F5272526F529D39453
:1008D0003B400A7FCE12106E120F8F80CEAB29AD37
:1008E0002AAF28120E8CE4F516F5170517E51770D8
:1008F000020516B431F5E516B475F07F0112106EDD
:100900007F8012106E7BFF7A0D791380337FC012C7
:10091000106E7BFF7A0D7924120F95120C028F2630
:1009200012102312101474D02527F5272526F52838
:10093000D3941F40107FC312106E7BFF7A0C79EAAC
:10094000120F9580C87F20121023E4F516F51705C5
:1009500017E51770020516B431F5E516B475F07F8A
:10096000C612106E7BFF7A0D790B120F95120C02D6
:100970008F2612102312101474D02527F527252650
:10098000F52AD3940C400A7FC912106E120F8F8083
:10099000CEE4F516F5170517E51770020516B43104
:1009A000F5E516B475F07FCB12106E7BFF7A0D79EA
:1009B00028120F95120C028F261210231210147495
:1009C000D02527F5272526F529FBAD2AAF28120EBD
:1009D000DBE4F516F5170517E51770020516B431B7
:0B09E000F5E516B475F07F0102106E03
:100B3D007F0112106E7F8012106E7BFF7A0D792C63
:100B4D0080387FC012106E7BFF7A0D793D120F95A4
:100B5D00120C028F26121023120BF88F271210235E
:100B6D0074D02527F5272526F515D3941740107F2A
:100B7D00C612106E7BFF7A0C79EA120F9580C37F37
:100B8D00C912106E7BFF7A0D7944120F95120C026B
:100B9D008F26121023120BF88F2712102374D025D5
:100BAD0027F5272526F514D3943B400A7FCE121046
:100BBD006E120F8F80C9E4F526E51575F00A84C411
:100BCD0054F0F526E51575F00A84E52645F0F51582
:100BDD00E4F526E51475F00A84C454F0F526E51401
:0A0BED0075F00A84E52645F0F514C2
:010BF70022DB
:100D56000209EBE493A3F8E493A34003F68001F2BF
:100D660008DFF48029E493A3F85407240CC8C3339E
:100D7600C4540F4420C8834004F456800146F6DF6D
:100D8600E4800B010204081020408090104AE47EA3
:100D9600019360BCA3FF543F30E509541FFEE49362
:100DA600A360010ECF54C025E060A840B8E493A329
:100DB600FAE493A3F8E493A3C8C582C8CAC583CA54
:100DC600F0A3C8C582C8CAC583CADFE9DEE780BE0C
:01105E000091
:100F6000BB010689828A83E0225002E722BBFE028F
:090F7000E32289828A83E49322C2
:100F7900EB9FF5F0EA9E42F0E99D42F0EC6480C8EF
:060F890064809845F0228F
:00000001FF
