:03000000020AE70A
:0C0AE700787FE4F6D8FD758150020B2EDC
:100A3F0041540041542B434D47463D310041542B07
:100A4F00434D47533D0041544400415448004C6FBF
:100A5F006164696E67200044495354414E43453ADF
:100A6F00200020636D200048756D7020446574650B
:100A7F00637465642E2E2E0053656E64696E672055
:100A8F006D657373616765210030313233343536EC
:100A9F00373839004D6573736167652053656E7420
:100AAF002121212100506F74686F6C65204465749B
:100ABF006563746564003C3C4472697665205361DC
:100ACF0066656C793E3E007E504C53205357495417
:080ADF004348204F4E7E200029
:100D5F000208000020202144697374616E63653AB4
:100D6F00202020636D2C202020202020202064654F
:070D7F0074656374656400F4
:0B0E4B00438909E4F58AF58CD28C2263
:100DFD00E4F58CF58AD2B50000000000000000007B
:040E0D0000C2B52248
:100CF700120DFD30B2FD20B2FD858C83858A827589
:100D07008AFF758CFFAF82AE83E4FCFD7BB87A88DF
:100D1700F9F8D3120C6A400FAF82AE837C007D3B9B
:0C0D2700120C158F458003E4F545AF4524
:010D3300229D
:0F0B7300754800754900754A217BFF7A0A799809
:100B82008B458A468947120D877F0D120E35120D4D
:100B9200CA7BFF7A0A7942120D8D7F0D120E351231
:100BA2000DCA7BFF7A0A794C120D8D7F228019AB18
:100BB20045AA46A947120BFC60130547E547700298
:100BC200054614F9120BFCFF120E3580E27F221249
:100BD2000E357F0D120E35120DCAAB48AA49A94A2D
:100BE200120BFC600D054AE54A70020549120E2FF0
:0A0BF20080E87F1A120E35020DCACA
:100C80008B4E8A4F8950120D877F0D120E35120D33
:100C9000CA7BFF7A0A7942120D8D7F0D120E351232
:100CA0000DCA7BFF7A0A7955120D8DAB4EAA4FA95A
:100CB00050120BFC600D0550E5507002054F120EEE
:100CC0002F80E87F3B120E357F0D120E35E4F50ABA
:100CD000F50B120DCA050BE50B7002050AD3941E25
:100CE000E50A940040EC7BFF7A0A7959120D8D7F5A
:070CF0000D120E35020DCAC2
:0F0E1100759850438920758DFD758BFDD28E220B
:060E2F0014F9120BFCFF98
:080E35008F993099FDC299224A
:060D87007BFF7A0A793FB0
:100D8D008B4B8A4C894DAB4BAA4CA94D120BFC6079
:0F0D9D000D054DE54D7002054C120E2F80E8221A
:080E56003098FDC298AF99220B
:100DCA00900000AF82AE83E4FCFD7B507AC3F9F851
:090DDA00C3120C6A4003A380EA75
:010DE30022ED
:100DAC007F38120E3D7F0E120E3D7F06120E3D7FD8
:0E0DBC000C120E3D7F01120E3D7F80020E3D97
:0E0E3D008FA0C280C281D282120E20C28222F9
:0B0DE4007C007D0A120C15ED2430FF8E
:0E0DEF008FA0D280C281D282120E20C2822238
:060D34007BFF7A0A7987BB
:100D3A008B458A468947AB45AA46A947120BFC60F0
:100D4A00130547E5477002054614F9120BFCFF121A
:050D5A000DEF80E22214
:0E0E2000E4FFFE0FBF00010EBE03F8BFE9F5B0
:010E2E0022A1
:10080000120E11120E4B120DAC7BFF7A0A795D129B
:100810000D3AE4F543F5447F2E120DEFE4F541F572
:1008200042AE41AF42E4FCFD7B607AEAF9F8C312C4
:100830000C6A400A0542E54270E7054180E3054441
:10084000E54470020543C39405E543940040C8D2D3
:1008500087E4F541F542AE41AF42E4FCFD7B607AAE
:10086000EAF9F8C3120C6A400A0542E54270E7054E
:100870004180E37F80120E3D7BFF7A0A7966120D7C
:100880003A120CF77508008F097F8A120E3DAE08E8
:10089000AF097C007D64120C15EF2430FF120DEFC0
:1008A000AE08AF097C007D0A120C15120DE4AE08EB
:1008B000AF09120DE47BFF7A0A7971120D3A308785
:1008C00003020A2EC3E5099410E5089400400302D0
:1008D000096A7FC0120E3D7BFF7A0A7976120D3AC3
:1008E000AE08AF097C007D64120C15EF2430F52AA8
:1008F000AE08AF097C007D0A120C157C007D0A123F
:100900000C15ED2430F52BAE08AF097C007D0A12E2
:100910000C15ED2430F52C753020753120753248DA
:1009200075335575344D7535507536207FC0120EB0
:100930003D120D34120B737FC0120E3D7BFF7A0AFD
:1009400079A3120D3AE4F541F542AE41AF42E4FC21
:10095000FD7B607AEAF9F8C3120C6A50030208734F
:100960000542E54270E4054180E0D3E5099414E5D1
:100970000894005003020A1DE5099432E50894002A
:100980004003020A1D7FC0120E3D7BFF7A0A79B434
:10099000120D3AAE08AF097C007D64120C15EF24ED
:1009A00030F52AAE08AF097C007D0A120C157C00D8
:1009B0007D0A120C15ED2430F52BAE08AF097C0032
:1009C0007D0A120C15ED2430F52C75305075314F21
:1009D00075325475334875344F75354C7536457FCF
:1009E000C0120E3D120D34120B737FC0120E3D7BF0
:1009F000FF7A0A79A3120D3AE4F541F542AE41AF10
:100A000042E4FCFD7B607AEAF9F8C3120C6A5003F9
:100A10000208730542E54270E4054180E07FC012A0
:100A20000E3D7BFF7A0A79C5120D3A0208737FC02A
:0F0A3000120E3D7BFF7A0A79D6120D3A02087337
:100AF300020800E493A3F8E493A34003F68001F211
:100B030008DFF48029E493A3F85407240CC8C33303
:100B1300C4540F4420C8834004F456800146F6DFD2
:100B2300E4800B0102040810204080900D5FE47EF6
:100B3300019360BCA3FF543F30E509541FFEE493C7
:100B4300A360010ECF54C025E060A840B8E493A38E
:100B5300FAE493A3F8E493A3C8C582C8CAC583CAB9
:100B6300F0A3C8C582C8CAC583CADFE9DEE780BE71
:010D8600006C
:100BFC00BB010689828A83E0225002E722BBFE02F7
:090C0C00E32289828A83E4932229
:100C1500BC000BBE0029EF8DF084FFADF022E4CCC3
:100C2500F875F008EF2FFFEE33FEEC33FCEE9DEC8C
:100C3500984005FCEE9DFE0FD5F0E9E4CEFD22EDD2
:100C4500F8F5F0EE8420D21CFEADF075F008EF2F1C
:100C5500FFED33FD4007985006D5F0F222C398FD0D
:050C65000FD5F0EA22AA
:100C6A00EB9FF5F0EA9E42F0E99D42F0EC6480C801
:060C7A0064809845F022A1
:00000001FF
