:03000000020DB13D
:0C0DB100787FE4F6D8FD7581160208007A
:100A8600494E495449414C4953494E472E2E2E2E24
:100A96000047534D204143434944454E5420444565
:100AA600540020564942524154494F4E3A204E4F27
:100AB600202000564942524154494F4E2044455445
:100AC6004543540020564942524154494F4E3A201C
:100AD600594553200053454E44494E47204D5347F0
:100AE6002E2E2E2E2E00393837363534333231300D
:100AF600004143434944454E5420444554454354DC
:100B06004544204E4541522044535043204D4144D4
:100B160041474144495045542050592D30312D30DC
:100B260032323900303132333435363738390031E4
:100B360031313131313131313100202020204D53D6
:100B4600472053454E54202020200043414C4C4919
:100B56004E472E2E2E2E2E2E2E2E2E004154415432
:100B66002B434D47463D3141542B434D47533D4161
:0F0B760054444154480038000C00010006008030
:100B85008B0A8A0B890CE4F516120D930516E516EA
:100B9500C3940240F47F0D120D9A120D3BE4F51635
:100BA500900B64120D960516E516C3940940F17F66
:100BB5000D120D9A120D3BE4F516E516900B6D938B
:100BC500FF120D9A0516E516C3940840ED7F221213
:100BD5000D9AAB0AAA0BA90C120A57FF6010120D49
:100BE5009A7401250CF50CE4350BF50B80E47F2296
:100BF500120D9A7F0D120D9A120D3BAB0DAA0EA97F
:100C05000F120A57FF6010120D9A7401250FF50F88
:100C1500E4350EF50E80E47F1A120D9A7F507E00A2
:030C2500020D3F7E
:100C28008B0A8A0B890CE4F516120D930516E51646
:100C3800C3940240F47F0D120D9A120D3BE4F51691
:100C4800E516900B6493FF120D9A0516E516C394EA
:100C58000940ED7F0D120D9A120D3BE4F516E516CD
:100C6800900B7593FF120D9A0516E516C394034071
:100C7800EDAB0AAA0BA90C120A57FF6010120D9AC5
:100C88007401250CF50CE4350BF50B80E47F3B1261
:100C98000D9A7F0D120D9A7F507E00120D3F7F58DE
:100CA8007E02120D3FE4F516E516900B7893FF12BD
:100CB8000D9A0516E516C3940340ED7F507E000299
:020CC8000D3FDE
:040D3B007F3C7E007B
:100D3F00E4FDFCD3ED9FEC9E5017758921758C4B0C
:100D4F00758AFDD28C308DFDC28D0DBD00010C80DA
:010D5F00E2B1
:010D60002270
:070D9300900B62E51693FFCF
:080D9A00C2998F993099FD22E6
:0F0DA200759850758921758DFD758BFDD28E2248
:100CCA00780C7C007D007BFF7A0B797B7E007F0AA3
:100CDA00120A31E4F50AF50BE50B25E0240CF808B5
:100CEA00E6FF120D61E4FFFE0FBF00010EBE04F81D
:100CFA00BFB0F5050BE50B7002050AD39404E50AAB
:040D0A00940040D43D
:010D0E0022C2
:100D61008F90C2A0C2A1D2A2E4FFFE0FBF00010E6C
:080D7100BE04F8BFB0F5C2A2F8
:010D79002257
:100D7A008F90D2A0C2A1D2A2E4FFFE0FBF00010E43
:080D8A00BE04F8BFB0F5C2A2DF
:010D9200223E
:0B0D0F007F80120D617BFF7A0A79974C
:100D1A00120A57FF601A120D7AE4FFFE0FBF000194
:100D2A000EBE04F8BFB0F5740129F9E43AFA80E07E
:010D3A002296
:10080000120DA2120CCA7F80120D617BFF7A0A7949
:1008100086120D1AE4F508F509AE08AF09E4FCFDEF
:100820007B607AEAF9F8D3120A70400A0509E509F3
:1008300070E7050880E3120D0F7FC0120D617A0A80
:1008400079A8120D1AD28020B20302094EC2807F0D
:1008500080120D617BFF7A0A79B9120D1A7FC012DE
:100860000D617A0A79CA120D1AE4F508F50905092D
:10087000E50970020508B430F5E508B475F0E4F553
:1008800008F5090509E50970020508B430F5E50821
:10089000B475F07F80120D617BFF7A0A79DB120D4F
:1008A0001A8B0D750E0A750FF77A0A79EC120B8503
:1008B000750DFF750E0A750FF77BFF7A0B792A12FB
:1008C0000B85750DFF750E0A750FF77BFF7A0B7997
:1008D00035120B857FC0120D617BFF7A0B794012B8
:1008E0000D1AE4F508F5090509E50970020508B4D3
:1008F00030F5E508B475F0E4F508F5090509E509F2
:1009000070020508B430F5E508B475F0E4F508F5B3
:10091000090509E50970020508B430F5E508B47564
:10092000F07F80120D617BFF7A0B7951120D1A7ADC
:100930000A79EC120C287BFF7A0B792A120C287B9F
:10094000FF7A0B7935120C28120D0F020847D2805E
:100950007FC0120D617BFF7A0A79A8120D1A020876
:01096000474F
:10096100E709F608DFFA8046E709F208DFFA803E78
:1009710088828C83E709F0A3DFFA8032E309F60865
:10098100DFFA8078E309F208DFFA807088828C83CD
:10099100E309F0A3DFFA806489828A83E0A3F60881
:1009A100DFFA805889828A83E0A3F208DFFA804C5B
:1009B10080D280FA80C680D4806980F28033801032
:1009C10080A680EA809A80A880DA80E280CA80339B
:1009D10089828A83ECFAE493A3C8C582C8CCC58313
:1009E100CCF0A3C8C582C8CCC583CCDFE9DEE780E3
:1009F1000D89828A83E493A3F608DFF9ECFAA9F062
:100A0100EDFB2289828A83ECFAE0A3C8C582C8CCB7
:100A1100C583CCF0A3C8C582C8CCC583CCDFEADED0
:100A2100E880DB89828A83E493A3F208DFF980CC32
:100A310088F0EF60010E4E60C388F0ED2402B4042B
:100A41000050B9F582EB2402B4040050AF232345D2
:060A510082239009B1733D
:100A5700BB010689828A83E0225002E722BBFE029D
:090A6700E32289828A83E49322D0
:100A7000EB9FF5F0EA9E42F0E99D42F0EC6480C8FD
:060A800064809845F0229D
:00000001FF
