:100A09004C4F4144494E472E004741533A3030300C
:100A190050504D20523A4F4646004F464600473AFD
:100A290048494748202020563A434C4F53450053E4
:100A3900454E44494E47204D53472E2E2E2E2E000B
:100A49003132333435363738393000564F4C564504
:100A590020434C4F53454420414E4420504F574565
:100A69005220444953434F4E4E4543544544204434
:100A7900554520544F20474153204C45414B414750
:100A89004521004741533A00523A00473A4E4F52E6
:100A99004D414C20563A4F50454E20004F4E2000B4
:100AA9000038000C000100060080415441542B43DA
:100AB9004D47463D3141542B434D47533D415444E5
:030AC9004154484D
:030DFE00011500DC
:100D1D00780A7C007D007BFF7A0A79A97E007F0A24
:100D2D001208D0E4F508F509E50925E0240AF808CC
:100D3D00E6FF120DC9E4FFFE0FBF00010EBE04F861
:100D4D00BFB0F50509E50970020508D39404E5085F
:040D5D00940040D4EA
:010D6100226F
:100DC9008F90C2B7D2B6E4FFFE0FBF00010EBE047A
:060DD900F8BFB0F5C2B640
:010DDF0022F1
:090DA90075F00A84E5F02430FF26
:100DB2008F90D2B7D2B6E4FFFE0FBF00010EBE0481
:060DC200F8BFB0F5C2B657
:010DC8002208
:100D88001208F6FF601A120DB2E4FFFE0FBF000151
:100D98000EBE04F8BFB0F5740129F9E43AFA80E010
:010DA8002228
:100ACC008B088A09890AE4F51A120DE0051AE51A51
:100ADC00C3940240F47F0D120DE7120D62E4F51A77
:100AEC00900AB5120DE3051AE51AC3940940F17F7B
:100AFC000D120DE7120D62E4F51AE51A900ABE9379
:100B0C00FF120DE7051AE51AC3940840ED7F221277
:100B1C000DE7AB08AA09A90A1208F6FF6010120D1E
:100B2C00E77401250AF50AE43509F50980E47F220A
:100B3C00120DE77F0D120DE7120D62AB0BAA0CA97B
:100B4C000D1208F6FF6010120DE77401250DF50D5E
:100B5C00E4350CF50C80E47F1A120DE77F507E0013
:030B6C00020D6611
:100B6F008B1F8A208921E4F51A120DE0051AE51A68
:100B7F00C3940240F47F0D120DE7120D62E4F51AD3
:100B8F00E51A900AB593FF120DE7051AE51AC394FB
:100B9F000940ED7F0D120DE7120D62E4F51AE51A0B
:100BAF00900AC693FF120DE7051AE51AC394034086
:100BBF00EDAB1FAA20A9211208F6FF6010120DE756
:100BCF0074012521F521E43520F52080E47F3B12C7
:100BDF000DE77F0D120DE77F507E00120D667F58D7
:100BEF007E02120D66E4F51AE51A900AC993FF12F8
:100BFF000DE7051AE51AC3940340ED7F507E0002FE
:020C0F000D6670
:040D62007F3C7E0054
:100D6600E4FDFCD3ED9FEC9E5017758921758C4BE5
:100D7600758AFDD28C308DFDC28D0DBD00010C80B3
:010D8600E28A
:010D87002249
:070DE000900AB3E51A93FF2E
:080DE700C2998F993099FD2299
:0F0DEF00759850758921758DFD758BFDD28E22FB
:100C9D00120DEF120D1DD280C2817F80120DC97B06
:100CAD00FF7A0A7909120D88E4F5197F2E120DB21B
:100CBD00E4F51DF51E051EE51E7002051DB430F58B
:100CCD00E51DB475F00519E519C3940840DD75A04F
:100CDD00FF7F80120DC97BFF7A0A7912120D88C22F
:100CED0081E4F51BF51C051CE51C7002051BB411F8
:100CFD00F5E51BB427F0120925E4F51BF51C051CC1
:100D0D00E51C7002051BB421F5E51BB44EF080E621
:10092500C286D287D2862085FDC28785A01585150A
:10093500177F84120DC9E51775F064842430FF1202
:100945000DB2E51775F00A84120DA9E517120DA968
:10095500E517D3945050030209EAC280C2817F8D06
:10096500120DC97BFF7A0A7923120D887FC0120DFB
:10097500C97A0A7927120D88E4F51DF51EAE1DAF5B
:100985001EE4FCFD7B607AEAF9F8D312090F400AF0
:10099500051EE51E70E7051D80E37FC0120DC97BAE
:1009A500FF7A0A7938120D888B0B750C0A750D5470
:1009B5007A0A7949120ACCE4F51DF51E051EE51ED5
:1009C5007002051DB430F5E51DB475F07F80120D7C
:1009D500C97BFF7A0A798C120D887F8B120DC97A33
:1009E5000A7991801B7FC0120DC97BFF7A0A799421
:1009F500120D88D280D2817F8D120DC97A0A79A510
:040A0500120D882224
:03000000020C11DE
:0C0C1100787FE4F6D8FD758121020C58B4
:10080000E709F608DFFA8046E709F208DFFA803EDA
:1008100088828C83E709F0A3DFFA8032E309F608C7
:10082000DFFA8078E309F208DFFA807088828C832F
:10083000E309F0A3DFFA806489828A83E0A3F608E3
:10084000DFFA805889828A83E0A3F208DFFA804CBD
:1008500080D280FA80C680D4806980F28033801094
:1008600080A680EA809A80A880DA80E280CA8033FD
:1008700089828A83ECFAE493A3C8C582C8CCC58375
:10088000CCF0A3C8C582C8CCC583CCDFE9DEE78045
:100890000D89828A83E493A3F608DFF9ECFAA9F0C4
:1008A000EDFB2289828A83ECFAE0A3C8C582C8CC1A
:1008B000C583CCF0A3C8C582C8CCC583CCDFEADE33
:1008C000E880DB89828A83E493A3F208DFF980CC95
:1008D00088F0EF60010E4E60C388F0ED2402B4048E
:1008E0000050B9F582EB2402B4040050AF23234535
:0608F00082239008507302
:1008F600BB010689828A83E0225002E722BBFE0200
:09090600E32289828A83E4932232
:10090F00EB9FF5F0EA9E42F0E99D42F0EC6480C85F
:06091F0064809845F022FF
:100C1D00020C9DE493A3F8E493A34003F68001F244
:100C2D0008DFF48029E493A3F85407240CC8C333D8
:100C3D00C4540F4420C8834004F456800146F6DFA7
:100C4D00E4800B0102040810204080900DFEE47E2C
:100C5D00019360BCA3FF543F30E509541FFEE4939C
:100C6D00A360010ECF54C025E060A840B8E493A363
:100C7D00FAE493A3F8E493A3C8C582C8CAC583CA8E
:100C8D00F0A3C8C582C8CAC583CADFE9DEE780BE46
:010E010000F0
:00000001FF
